:400000000010002011000000E9070000E907000008B500F0EBFBC04610B5124C22688023DB0213432360182000F0DCFD22680E4B134023600D4A0E4B1A6010220D4B1A6018
:40004000802212060C4B1A600C4A0D4B1A6009200C4900F071FD092000F058FD00220A4B1A6010BD00010B40FFFFFBFF0600008004010B400C02024008010B401000008077
:4000800000000240F90D00000C020B4038B572B600241E4D0CE063001B195B00EB1899881A8858880004104300F0EAFB0134E4B2012CF0D999231B04154A1360EE210902C3
:4000C000144A1160144A1360144A1360144B197802220A431A70134A11783C208143142001431170197816220A431A7020230E4A1360C42189020D4A11600D4A1360D822FB
:4001000012010C4B1A60FFF787FF38BDF01A0000000001400C00014000500F4030500F4000700F4001700F400000044008000440180004400803044010B5064C2378002BCD
:4001400007D1054B002B02D0044800E000BF0123237010BDE000002000000000EC1A000008B5084B002B03D00748084900E000BF07480368002B03D0064B002B00D09847B5
:4001800008BDC04600000000EC1A0000E4000020C80000200000000010B562B600F044FAFA2464000120211C221C022300F078FAFA20800000F0F4FC01200349221C042386
:4001C00000F06EFAFEE7C0460CFEFFFF08B500F0F9FB00F087FB08BD30B50D4B1A780D4B1B785A400C4B1B785A400C4B1A7000230A4A05E0C55C14786C4014700133DBB229
:400200008B42F7D3054B18780123984330BDC0462401002026010020B8010020B6010020FE238343181C704738B5051C0C1CFFF7CDFF281C211C00F0B9FB012000F0B0FC6D
:4002400038BDC046F0B5474680B41B4A90460A2313701A4F38701A4E03233370194C34222270012262706022A270174A1370201C0321FFF7B1FF051C144B1870FFF7D0FF63
:40028000134B1870134BFF221A705A704246117899703A78DA7032781A715D7198712278DA7162781A72A2785A72181CFFF7BCFF04BC9046F0BDC046240100202601002078
:4002C000B8010020640100202501002082010020B701002028010020F0B5474680B41B4A90460A2313701A4FFE233B70194E03233370194C3422227001226270A070174A2D
:400300001370201C0321FFF767FF051C144B1870FFF786FF134B1870134BFF221A705A704246117899703A78DA7032781A715D7198712278DA7162781A72A2785A72181CBB
:40034000FFF772FF04BC9046F0BDC0462401002026010020B8010020640100202501002082010020B701002028010020F0B5474680B41D4A90460B2313701C4F38701C4E08
:40038000032333701B4C30232370022363700023A370E3700422184B1A70201C0421FFF71BFF051C154B1870FFF73AFF144B1870144BFF221A705A704246117899703A7863
:4003C000DA7032781A715D7198712278DA7162781A72A2785A72E2789A72181CFFF724FF04BC9046F0BDC0462401002026010020B8010020640100202501002082010020A7
:40040000B701002028010020F0B5474680B41A4A90460A231370194F3870194E03233370184C3522227001226270A170164A1370201C0321FFF7D0FE051C144B1870FFF7B3
:40044000EFFE134B1870134BFF221A705A704246117899703A78DA7032781A715D7198712278DA7162781A72A2785A72181CFFF7DBFE04BC9046F0BD2401002026010020B1
:40048000B8010020640100202501002082010020B701002028010020F8B55F4656464D464446F0B4041C3C4DA9426BD83B48824268D8FF270F40B8460E04360E022B07D0FA
:4004C000042B09D0012B0BD00023002100250AE000230021012506E001230021002502E00023012100256D006D189B00ED18AD00101C00F0A9FE01F05BFA264B244A00F07D
:40050000FFFE01F021FA264A91461060254A93460C231370244B9A46062352461370234F43463B707E70BD70FC70214E604030700422204B1A70381C0421FFF74DFE051C9C
:400540001D4B1870FFF76CFE1C4B187034701C4BFF221A705A705A4611789970DC70544622781A715D71987148460268DA713A781A727A785A72BA789A72FA78DA72181C39
:40058000FFF752FE3CBC90469946A246AB46F8BD6666666666662640FF030000280B00002001002024010020B801002064010020260100202501002082010020B7010020CF
:4005C00028010020C046C046D8B5474680B480460C1C171C1E1C081C114900F063FD002816D1201C0F4900F049FD002810D1201C01F0DEF9094B084A00F082FE01F0A4F9A5
:4006000080239B00C11840463A1C331CFFF744FF04BC9046D8BDC046CDCCCCCCCCCCD43F00002043000020C308B500F04BF90023194A1370194A1370642000F0B1FAFE20CF
:40064000FFF794FE0A2000F0ABFA0120FFF744FE0A2000F0A5FAFE20FFF7F4FD0A2000F09FFAFE200021FA2292000423FFF7ACFF9620C00000F094FAFE200121FFF7C4FEC8
:40068000642000F08DFAFE200021FFF7BDFEFA20400000F085FA08BD2701002025010020F8B55F4656464D464446F0B4041C42480E18424DAE4272D8414882426FD800292E
:4006C00003DA49428026F6013143FF270F40B8460E04360E022B07D0042B09D0012B0BD00023002500210AE000230025012106E001230025002102E0002301250021AD009F
:400700000235C9006D181B01ED18101C00F09CFD01F04EF9274B264A00F0F2FD01F014F9284A91461060284A93460C231370274B9A46062352461370254F43463B707E7085
:40074000BD70FC70234E604030700422224B1A70381C0421FFF740FD051C204B1870FFF75FFD1F4B187034701E4BFF221A705A705A4611789970DC70544622781A715D7181
:40078000987148460268DA713A781A727A785A72BA789A72FA78DA72181CFFF745FD3CBC90469946A246AB46F8BDC046C046C0466666666666662640FF030000FE0700006B
:4007C000280B00002001002024010020B801002064010020260100202501002082010020B701002028010020FEE7C046F8B50F4F0F4E002412E031687368B568221C02E077
:4008000001C901C30432AA42FAD1F168221C01E010C304328A42FBD11036013F002FEAD101F036F9FFF7B8FCFEE7C04601000000901B000038B500230D4C0E4D0E4808E051
:40084000032B02D89A00515900E0211C9A00115001332F2BF4D9FFF719FC0022074B1A608023DB05196801220A431A6038BDC046E90700000000000000000020C0000020E7
:4008800008B50A1C002101F029F908BD08B50B2000F03CF908BDC04608B500F029F908BD08B500F0BBF808BD08B5054B1968802212060A431A60FFF7E9FFFFF7EDFF08BD37
:4008C0000000074008B5064B1B78002B04D1FFF7E7FF0122024B1A70FFF7E6FF08BDC046FC00002008B50B2000F01AF90B4B1A680B4B1A6000220B4B1A700B4B196880226A
:4009000052020A431A601968084A0A401A60084A084B1A600B2000F0F9F808BDC4010020EC010020E801002004030740FFFFFEFFED0F0000C00F0740154B1A68154B1B68FA
:400940009A4208D1144B1B680F221340082B02D0124B18601AE00E4B1A6801320F2A00D100220C490B689A42FCD002230C490B60C0B20C49885406490A600B4A1268134279
:4009800004D1094B196802220A431A607047C046C0010020BC0100200802074040020740800F0740C8010020880F074070B5061C0D1C002403E0305DFFF7BEFF0134AC42D6
:4009C000F9D370BD08B50B2000F0AAF80C4B1A680C4B1A600C4B1A6802218A431A600B4B1968802252020A431A601968084A0A401A60084A084B1A600B2000F087F808BDEE
:400A0000BC010020C0010020880F074004020740FFFFFEFFF3070000800F074010B51D4A1D4B1A6000241D4B1C6001221C4B1A601C4B1D490B6007201C4908601C490C60EB
:400A40001C490A601C4A13601C4B1C600B2000F067F80B20032100F07FF80B20184900F06BF8184B1C60184B1C60184B1C60184B1C600422174B1A60174B1C60174B1C60A2
:400A8000174B1C60174B1C70174B1C60174B1C6010BDC0460B00000200000740400007404800074007000080000307400403074010030740440007400002074004020740D7
:400AC0009D0E0000880E0740C80E0740480F0740080F0740C80F0740880F0740EC010020C4010020E8010020C0010020BC010020044B1968044A0A40902109040A431A60B3
:400B00007047C04600000140FFFF0FFF1F23184001238340181C014B1860704700E100E01F23184001238340181C014B1860704780E100E001BE704738B5041C0D1C1F2856
:400B400002D90020FFF7F6FFA400024BE4182068256038BD4000002070B5041C0E1E032E02D90020FFF7E6FF1F2C02D90020FFF7E1FF03252540ED00063500F013FAA4084E
:400B8000A400064BE41823680322AA409343AE40351C1D43256000F009FA70BD00E400E070B5041C80252D02074E04E0306800F0EFF9064BE418AC42F8D8034B586860434E
:400BC00000F0E6F970BDC046CC0000200080FFFF08B5034B1B7A584300F0DAF908BDC046CC000020F0B557464E464546E0B4041C00F0D8F98046E51E2D2D73D83F4B1B7873
:400C0000DBB2A34208D33E4B1B78DBB29A463D4B1B78DBB2994631E03B4B1B78DBB2A34208D33A4B1B78DBB29A46394B1B78DBB2994623E0374B1B78DBB2A34208D3364BF2
:400C40001B78DBB29A46354B1B78DBB2994615E0334B1B78DBB2A34208D3324B1B78DBB29A46314B1B78DBB2994607E02F4B1B78DBB29A462E4B1B78DBB299462D4B5E5D9E
:400C80002F2E09D92A2C07D919222B4B1A60052000F07EF9192703E0274B1F683F231F40BE4206D2234B5A5D234B1A60052000F06FF91F4AA4182278D2B2204B1A60204B36
:400CC00052461A601F4B4A461A600520FFF780FFBE420AD9174B5A5D174B1A60052000F057F902E00020FFF725FF404600F05EF91CBC90469946A246F0BDC046C0F1FF0FC7
:400D0000C1F1FF0FC2F1FF0FC3F1FF0FC4F1FF0FC5F1FF0FC6F1FF0FC7F1FF0FC8F1FF0FC9F1FF0FCAF1FF0FCBF1FF0FCCF1FF0FCDF1FF0FFC1A00002CFF0B4028FF0B40A7
:400D40001CFF0B4020FF0B40044B1A68C0231B021A4201D0012000E00020704700010B4008B500F01FF9044B1968C02212020A431A6000F01BF908BD00010B4010B500F065
:400D800011F9084B1968084A11408024E4012143196019680A40802109020A431A6000F005F910BD00010B40FF3FFFFF38B5051C00F0F8F8041CFFF7C7FF002803D0FFF710
:400DC000DDFF012200E00022084B1D40084B1868084901400D431D601B68012A01D1FFF7BFFF201C00F0E2F838BDC0460404040010020B40FBFBFBFF10B5244B1B685A076A
:400E000015D5234B1B685A070ED5224B9C69042214401F490868A0430860996991439961DB68002B00D098470420FFF7BFFF174B1B685A0518D5164B1B685A0510D5154B06
:400E40009A698020C0001040114A1168814311609969114A0A409A611B69002B00D098478020C000FFF7A2FF084B1B685A030CD5074B1B685A0304D5064B5B69002B00D090
:400E800098478020C002FFF791FF10BD10020B40DC00002004010020FFFBFFFFF0B5474680B42A4B1B68002B00D09847284B1B685A071ED52748002398462749274D284FDB
:400EC000061C202403680133102B00D143460A68934203D12B68234A147003E02A68D2B2FA543360204B1B681A07EBD104221F4B1A601F4B1B689A0724D51E481E498C46E4
:400F0000002290461D4F1E4E0D1C1E4C02680B689A420FD06246136801330F2B00D14346FA5CD2B232602B6023680F221340082BECD104E0144B1A6802218A431A60022282
:400F4000124B1A6004BC9046F0BDC04600010020CC0F0740EC010020C401002040030740D8010020E801002008030740C00F07408C0F0740C0010020BC010020C80100209F
:400F80004002074008020740880F0740800F07400230800804D0C0460138FDD1C046C046C0467047EFF3108072B6704780F310887047C046C046C046002934D001230022A7
:400FC00010B488422CD301242407A14204D2814202D209011B01F8E7E400A14204D2814202D249005B00F8E7884201D3401A1A434C08A04202D3001B5C0822438C08A0424E
:4010000002D3001B9C082243CC08A04202D3001BDC082243002803D01B0901D00909E3E7101C10BC7047002801D00020C04307B4024802A14018029003BDC04619000000C0
:401040000029F0D003B5FFF7B9FF0EBC4243891A1847C0467047C0468446081C6146FFE71FB500F0A5F8002801D40021C8421FBD10B500F02BF84042013010BD10B500F020
:4010800097F8002801DB002010BD012010BDC04610B500F08DF8002801DD002010BD012010BDC04610B500F03BF8002801DC002010BD012010BDC04610B500F031F80028C7
:4010C00001DA002010BD012010BDC0464A02430270B55C0A550A43004A001B0EC60F120EC90FFF2B05D0FF2A08D0012093420BD070BD0120002CFBD1FF2AF6D10120002DE1
:40110000F6D101209342F3D1AC42F1D18E4205D0002BEDD1201C441EA041E9E70020E7E74A024302F0B55C0A550A43004A001B0EC60F120EC90FFF2B31D0FF2A34D0002BB2
:4011400016D1604260418446002A14D0002820D18E4217D1934215DC04DBAC4212D80020AC4212D2704270414042012318430CE0002AEDD194466F426F416046002805D116
:40118000002FE5D0704201231843F0BD0020002FFBD148424841404201231843F5E7002CCBD002204042F0E7002DC8D0F9E7C0464A024302F0B55C0A550A43004A001B0EC4
:4011C000C60F120EC90FFF2B27D0FF2A29D0002B10D0002A15D194466F426F416046002815D00020002F04D148424841404201231843F0BD604260418446002AECD00028D6
:40120000F2D18E4211D0704201231843F1E7002FF7D0704201231843EBE70220002CE8D1D3E70220002DE4D1D1E79342EBDC04DBAC42E8D80020AC42DBD2704270414042F2
:4012400001231843D5E7C04670B5041E3CD0C60F00D04442201C00F0FDFB9E23251C1B1A962B0CDC083884406402640ADBB2321C6402DB05600AD2071843104370BD992BD0
:401280000ADD0522121A211CD1400A1C011C1B318D40691E8D411543052801DD421F9540164C2C406A0704D00F221540042D00D0043461010CD59F23181AFF281AD0A4019D
:4012C000640AC3B2321CD3E7002200230024CFE7E408FF2B04D06402640ADBB2321CC7E7002C04D08020C00304436402640A321CFF23BDE7321CFF230024B9E7FFFFFFFBDF
:40130000F0B5564644465F464D46F0B41F1C0B031B0B98464B0087B0041C81465B0DC80F161C9A460090002B51D06A4B9A4531D08022414652030A43630FD2001A43664B71
:4013400090460025E20091469A44002402953B031B0B9B46FD0F7B00311C5B0D019560D05C4A934254D08021584649030143720FC9001143584A8B469B18F1000020009AFC
:4013800004436A4003920F2C00D9ADE0534EA4003459A746404604436ED1002102250824884689460295D2E7009C0298C34649460194022864D0032800D1ABE2012800D097
:4013C00038E2019A002402400025A14660E0434623434AD04046002800D1C0E100F03AFB031E272B00DDB3E128210D1A211C083B4246E9409A400D1C1543221C9A40A84652
:401400009146374B00251B1A9A46002402959EE75A4616430320002EB1D1B34600210220ADE75A4632431BD05B46002B00D18AE1584600F00FFB272800DD7DE12822171A98
:40144000011C321C08395B46FA408B40171C1F43331C8B40BB46191C214B1B1A00208EE70027BB460021012089E70020012504248046814602956AE703250C24029566E706
:40148000019C0394039D01222A400024114DA146002000212403260B0C0D2405114B34432D0523402B435B005B08D207191C4846114307B03CBC90469946A246AB46F0BD19
:4014C0000022802424039146024DE1E700240025A146DDE7FF07000001FCFFFF2C1B00000DFCFFFFFFFF0F805546ED1A0495D84500D953E100D14EE1049C0025013C4E4646
:4015000004944746A946584603020C0E1C430902250C23041B0C0091381C291C0193FFF74BFD019983464143381C8A46291CFFF787FD330C090419438A450CD95B4609190C
:40154000013B8C4200D947E18A4500D844E102225242934409195346CB1A181C291C9846FFF72AFD071C0198291C784382464046FFF766FD36040B04360C33439A4509D9CC
:401580001B197A1E9C4200D924E19A4500D821E1023F1B195E4632041743380CBB46009E009F51463F0C32045B1A5946BA46120C0F043F0C904651467A434F434146414350
:4015C00056467043CF19160CBE19B14202D980277F02C019310C12043604120C4018B618834200D2C4E000D1BEE0191A4846861BB145BF417F42CF1BA74200D113E1291C7B
:40160000381CFFF7D9FC019902904143381C8946291CFFF715FD330C0904194389450CD9029B0919013B8C4200D9FFE0894500D8FCE0029F0919023F02974F46CF1B381C9D
:40164000291C0597FFF7B8FC071C0198291C784381460598FFF7F4FC36040904360C0E43B14509D936197B1EB44200D9E0E0B14500D8DDE0023F3619029D4946761A2904AA
:4016800039430B0457460A0C1B0C40464546584355437B437A43EB18070CDB199D4202D980256D0252191D0C00041B04000C52191B18964235D300D1FCE001231943049E1E
:4016C000994FF519002D00DCA1E0480709D00F230B40042B05D00B1D8B42894149428B44191C5A46D20107D5904B5C46049E80271C40FF00A346F5198D4B9D427ADD039C5F
:401700000122224000248B4DA146C1E680242403474627424CD13C432403240B009A854DB6E63619481EB4425ED9011C9642C4D1009E9E42C1D1C2E7031C283B311C994012
:401740008B46002188E6301C00F084F9203072E6283B211C994000228846914651E6201C00F078F920303BE60021B14500D33DE7009F5A46B944B945BF417F423F19FB18AF
:40178000013A9C421ED2984200D97EE000D1B5E0191A93462AE7894500D8ADE64846464642467708D3074608C0071E438146AAE65846204212D1044324032A1C240B8946F6
:4017C0005C4D65E6A342E3D1009F4F45DBD9211A93460BE7171CDDE69B46BCE63C432403240B009A534D53E6B24259D800D18AE0011C62E75F46C9087B07039E0B437C0283
:401800006D0501229946240B6D0D324040E64A4B049FDB1B382B10DD039C0122224000240025A14634E60121494248E7029304E71F1C21E7019C039441E71F2B40DC3F481F
:40184000049F0C1C3A1858469140DC40904020430A1C511E8A41011C11435A46DA40131C480709D00F220A40042A05D00A1D8A42894149425B18111C1A0234D5039C01225E
:40188000224000240125A14602E6009F02214942B9448B44B945894149420919CB18A4E6009D881E6900A942AD416D422C19361900913AE7002B00D033E70024009437E74D
:4018C0001F4A049C5D46121BD5402A1C202B1FD01C4E5F46A3199F403B1C19434B1E994111430023BCE75A07C9080A43039F91465B0201221C0B3A400025C9E54E45C4D8A5
:401900009346002172E6009F9F42C9D3011C0FE70023E2E7802424035F463C432403240B019A8946034DB3E5FF030000FFFFFFFEFE070000FF07000002FCFFFF1E0400007D
:40194000E2FBFFFF3E04000070B50B1C124C09030E0B5900021C490DDD0F0020A14211DD0E4881420FDC8020400306430C48401A1F280BDD0B4A521AD640321C5042002DE0
:4019800000D1101C70BD084BE818FBE7074BC240C9188E403243F1E7FE0300001D0400003304000013040000FFFFFF7FEDFBFFFF43001B0E5A1C4102D2B270B54C0AC50FAE
:4019C000012A17DDE02292006407090B9818002200231E0D221C34050C431B49400540082140014349004908ED070B1C2B43101C191C70BD002B15D1002C1CD0201C00F033
:401A000029F80A281ADC0B21091A231CCB40191C031C15339C400D4B0903181A4005090B400DD4E7002C03D06407090B0848CEE707480021CBE700200021C8E7011C0B395F
:401A40008C40211C0024E6E7FFFF0F8089030000FF0700001C2101231B04984201D3000C10391B0A984201D3000A08391B09984201D30009043902A2105C40187047C0466F
:401A80000403020201010101000000000000000070B50E4B0E4D0024ED1AAD101E1CAC4204D0A300F35898470134F8E700F05EF8084B094D0024ED1AAD101E1CAC4204D0A6
:401AC000A300F35898470134F8E770BD781B0000781B0000781B0000801B0000031C8218934202D019700133FAE770470000000000300F40000400400F40000403040506A7
:401B00000708090A0B0C0E0F101112131415161718191B1C1D1E1F2021222325262728292A2B2E2F3031323334350000E814000084140000CC140000B2130000CC140000AE
:401B4000C0140000CC140000B21300008414000084140000C0140000B2130000A8130000A8130000A81300000C170000F8B5C046F8BC08BC9E46704761010000350800006A
:401B8000F8B5C046F8BC08BC9E46704739010000A01B0000C80000201800000010010000000000000000E02EC05D00001800000000366E0104040400000000000000000065
:401BC00000000000000000000000000000000000000000000000000000000000000000000000000000000000000000000000000000000000000000000000000000000000E5
:401C000000000000000000000000000000000000000000000000000000000000000000000000000000000000000000000000000000000000000000000000000000000000A4
:401C40000000000000000000000000000000000000000000000000000000000000000000000000000000000000000000000000000000000000000000000000000000000064
:401C80000000000000000000000000000000000000000000000000000000000000000000000000000000000000000000000000000000000000000000000000000000000024
:0200000490303A
:0200000017984F
:0200000490402A
:200000000000000000000000000000000000000000000000000000000000000000000000E0
:0200000490501A
:0C000000000204C81193110104D1292B47
:0200000490600A
:0100000001FE
:00000001FF